:0600000000F020EF06F005
:10060000004C616231204A6572656D696520486100
:050610006D656C0000A7
:10061600FFFF56EC06F061EC06F007EC06F07BEC0B
:1006260006F075EC06F06CEC06F0000E0001B36FF8
:10063600000EB26F0001B3BF2AEF03F0B3510AE117
:10064600030EB25DD8A02AEF03F02DEF03F0FFFFF3
:1006560030EF03F0FFFF65EF03F0FFFF838E82802C
:10066600080E0001B06F9E0EAF6F4B0EFFFFE82E17
:10067600FDD7AF2FFBD7B02FF9D700D000F0839E60
:100686008290080E0001B06F9E0EAF6F4B0EFFFFFB
:10069600E82EFDD7AF2FFBD7B02FF9D700D000F04B
:1006A6000001B24BB32BB3BF62EF03F0B3510AE1C3
:1006B600030EB25DD8A062EF03F065EF03F0FFFF13
:1006C60030EF03F0FFFF010E0001AA6F060EAB6FBD
:1006D60092EC04F0020E0001A66F010E46EC04F047
:1006E600FFFF33EC06F00001D8A07CEF03F07FEFAC
:1006F60003F0FFFF73EF03F0FFFF45EC06F0000188
:10070600B16F0001B151D0EC04F0020E0001B06FE0
:10071600860EAF6FDA0EFFFFE82EFDD7AF2FFBD7A1
:10072600B02FF9D700D000F073EF03F001EF00F01F
:10073600FFFF400EF8EC03F0000E0001A86F070E55
:100746000001A865A9EF03F0ACEF03F0FFFFAFEFE0
:1007560003F0FFFFF3EF03F0FFFF000E0001A96FA8
:10076600070E0001A965BAEF03F0BDEF03F0FFFF26
:10077600C0EF03F0FFFFE6EF03F0FFFF0001A85113
:10078600080D600E0001A66F000EA76FF350A62796
:10079600F450A7230001A9510001A625D96E000136
:1007A600000E0001A721DA6EDF50BBEC05F0000158
:1007B600A92B070E0001A965E3EF03F0E6EF03F0AE
:1007C600FFFFC0EF03F0FFFF0001A82B070E00019B
:1007D600A865F0EF03F0F3EF03F0FFFFAFEF03F0D0
:1007E600FFFF75EC06F01200FFFFFFFF0001A56F8B
:1007F60049EC05F0000E926E00D000D000D000D07B
:100806008198809A0001A5390F0B0DEC05F081EC5B
:1008160006F000D000D000D000D00001A5510DECAC
:1008260005F081EC06F0280EFFFFE82EFDD700014B
:10083600A505D8B421EF04F024EF04F0FFFF30EF54
:1008460004F0FFFF020E0001A519D8A42DEF04F055
:1008560030EF04F0FFFF3BEF04F0FFFF080E00014E
:10086600A46FCB0EFFFFE82EFDD7A42FFBD700F019
:10087600FFFF0F0E926E00D000D000D000D049ECE2
:1008860005F01200FFFFFFFF0001A96F6EEF04F0F5
:10089600FFFF0001A9058009F8EC03F08FEF04F0D3
:1008A600FFFF0001A9513F0F8009F8EC03F08FEF1D
:1008B60004F0FFFF0001A951130F8009F8EC03F0C3
:1008C6008FEF04F0FFFF0001A951530F8009F8ECE8
:1008D60003F08FEF04F0FFFF0001A6510001A76FA0
:1008E600A86BA851000AD8B47BEF04F08FEF04F090
:1008F600FFFFA751010AD8B44BEF04F0030AD8B49E
:1009060053EF04F0010AD8B45CEF04F0070AD8B438
:1009160065EF04F08FEF04F0FFFF1200FFFFFFFF0B
:10092600000E0001AE6FB0EF04F0FFFF0001AE5104
:100936000001AA250001AC6F000E0001AB210001E9
:10094600AD6FACC0F6FFADC0F7FFF86A0800FFFF59
:10095600F550D0EC04F00001AE2BFFFF0001AE51C4
:100966000001AA250001AC6F000E0001AB210001B9
:10097600AD6FACC0F6FFADC0F7FFF86A0800FFFF29
:10098600F5500009D8A4CAEF04F0CDEF04F0FFFF3C
:1009960098EF04F0FFFF1200FFFFFFFF0001A86FB2
:1009A6000001A851BBEC05F00001A96FEDEF04F0C2
:1009B600FFFFC00EF8EC03F00AEF05F0FFFF940E00
:1009C600F8EC03F00AEF05F0FFFFD40EF8EC03F0A5
:1009D6000AEF05F0FFFF0001A9510001A66FA76B02
:1009E600A751000AD8B4FAEF04F00AEF05F0FFFFAA
:1009F600A651140AD8B4DBEF04F0540AD8B4E7EFD2
:100A060004F0140AD8B4E1EF04F00AEF05F0FFFF92
:100A16001200FFFFFFFF0001A16FA1C0A0F0010EB1
:100A26000001A0178050A019FE0BA019806EA1C06E
:100A3600A0F0D890A033010EA017A0478050A019AF
:100A4600FD0BA019806EA1C0A0F0D890A033D8905D
:100A5600A033010EA017A047A0478050A019FB0B9A
:100A6600A019806EA1C0A0F0D890A033D890A03372
:100A7600D890A033010EA017A047A047A0478050EA
:100A8600A019F70BA019806E1200FFFFFFFF8198D7
:100A9600808AFFFF808800F087EC06F00001A06FD7
:100AA600A16BA03BA13BF00EA117A0510F0BA11308
:100AB600F00EA017A0C0A2F0A1C0A3F0809800D0AD
:100AC60000D000D000D0808800F087EC06F000014E
:100AD600A06FA0510001A213809800D000D000D0D2
:100AE60000D00001A2BF7AEF05F07DEF05F0FFFF11
:100AF6004CEF05F0FFFF809A0001A2517F0B120018
:100B0600FFFFFFFF000E926E9C0E0001A26FF10E1A
:100B1600FFFFE82EFDD7A22FFBD700F08198809A21
:100B2600030E0DEC05F081EC06F0280EFFFFE82E13
:100B3600FDD7030E0DEC05F081EC06F0280EFFFF45
:100B4600E82EFDD7030E0DEC05F081EC06F0280E1D
:100B5600FFFFE82EFDD7020E0DEC05F081EC06F046
:100B6600280EFFFFE82EFDD70F0E926E1200FFFF34
:100B7600FFFF0001A46F49EC05F0000E926E00D055
:100B860000D000D000D08188809A0001A4390F0BD4
:100B96000DEC05F081EC06F000D000D000D000D0BE
:100BA6000001A4510DEC05F081EC06F000D000D058
:100BB60000D000D00F0E926E00D000D000D000D032
:100BC60049EC05F01200FFFF0804040A111F11008A
:100BD60002040E111F100E0002041F101E101F002B
:100BE60008040E111F100E0008041F101E101F000F
:100BF600040A0E111F100E0008040E010F110F003B
:100C0600040A0E010F110F00FFFF9350EF0B936EB6
:100C160084EC05F0280EF8EC03F00F0EF8EC03F068
:100C2600010EF8EC03F0060EF8EC03F0800EF8EC7B
:100C360003F09BEC03F01200FFFFCE0EF66E0B0ED8
:100C4600F76E000EF86E00EE60F010EE40F0090050
:100C5600F5CFEEFFE550E150FAE100010BEF03F0AE
:100C6600FFFF9EBA39EF06F03CEF06F0FFFF40EFBC
:100C760006F0FFFFD89042EF06F0FFFFD880FFFF97
:100C86001200FFFFFFFFFFFF9EAA4CEF06F04FEF9B
:100C960006F0FFFF46EF06F0FFFFAECFA0F0000123
:100CA600A0511200FFFFFFFF070EC16E000E926EED
:100CB600000E956E800E946E1200FFFFFFFF948E5D
:100CC600948C190EAF6EAC94AB8EAC98AB881200B8
:100CD600FFFFFFFF010EF8EC03F0800EF8EC03F0C7
:100CE6001200FFFFFFFF020EF8EC03F01200FFFFF9
:100CF600FFFF0C0EF8EC03F01200FFFFFFFF8088E9
:100D060000F080981200FFFFFFFF80500F0B1200CB
:040D1600FFFFFFFFDD
:020000040020DA
:08000000FFFFFFFFFFFFFFFF00
:020000040030CA
:04000000FF220D0EC0
:0800060080FF0FC00FE00F4066
:00000001FF
