:0600000000F040EF05F0E6
:10060000004C61623120566F747265206E6F6D0010
:0106100000E9
:10061200FFFF400E64EC03F0000E0001A86F070E0E
:100622000001A86517EF03F01AEF03F0FFFF1DEFBB
:1006320003F0FFFF5FEF03F0FFFF000E0001A96F61
:10064200070E0001A96528EF03F02BEF03F0FFFF6F
:100652002EEF03F0FFFF52EF03F0FFFF0001A8515E
:10066200080D600EF3240001A66F000EF420A76FA0
:100672000001A9510001A625D96E0001000E00015A
:10068200A721DA6EDF50DBEC04F00001A92B070E84
:100692000001A9654FEF03F052EF03F0FFFF2EEFC9
:1006A20003F0FFFF0001A82B070E0001A8655CEF15
:1006B20003F05FEF03F0FFFF1DEF03F0FFFF71ECAC
:1006C20005F01200FFFFFFFF0001A56F69EC04F0C7
:1006D200000E926E00D000D000D000D08198809A97
:1006E2000001A5390F0B2DEC04F077EC05F000D0DA
:1006F20000D000D000D00001A5512DEC04F077EC21
:1007020005F0280EFFFFE82EFDD70001A505D8B49D
:100712008DEF03F090EF03F0FFFF9CEF03F0FFFF7C
:10072200020E0001A519D8A499EF03F09CEF03F083
:10073200FFFFA7EF03F0FFFF080E0001A46FCB0E2F
:10074200FFFFE82EFDD7A42FFBD700F0FFFF0F0E0F
:10075200926E00D000D000D000D069EC04F01200FC
:10076200FFFFFFFF000E0001AE6FD0EF03F0FFFFAF
:100772000001AE510001AA250001AC6F000E00017C
:10078200AB210001AD6FACC0F6FFADC0F7FFF86A58
:100792000800FFFFF550F0EC03F00001AE2BFFFF65
:1007A2000001AE510001AA250001AC6F000E00014C
:1007B200AB210001AD6FACC0F6FFADC0F7FFF86A28
:1007C2000800FFFFF5500009D8A4EAEF03F0EDEFAF
:1007D20003F0FFFFB8EF03F0FFFF1200FFFFFFFF80
:1007E2000001A86F0001A851DBEC04F00001A96F21
:1007F2000DEF04F0FFFFC00E64EC03F02AEF04F0EB
:10080200FFFF940E64EC03F02AEF04F0FFFFD40E16
:1008120064EC03F02AEF04F0FFFF0001A95100018C
:10082200A66FA76BA751000AD8B41AEF04F02AEFFB
:1008320004F0FFFFA651140AD8B4FBEF03F0540AE8
:10084200D8B407EF04F0140AD8B401EF04F02AEF89
:1008520004F0FFFF1200FFFFFFFF0001A16FA1C024
:10086200A0F0010E0001A0178050A019FE0BA019E4
:10087200806EA1C0A0F0D890A033010EA017A047AF
:100882008050A019FD0BA019806EA1C0A0F0D890D5
:10089200A033D890A033010EA017A047A0478050E4
:1008A200A019FB0BA019806EA1C0A0F0D890A033B4
:1008B200D890A033D890A033010EA017A047A0472C
:1008C200A0478050A019F70BA019806E1200FFFFFD
:1008D200FFFF8198808AFFFF808800F07DEC05F0A1
:1008E2000001A06FA16BA03BA13BF00EA117A0518C
:1008F2000F0BA113F00EA017A0C0A2F0A1C0A3F08D
:10090200809800D000D000D000D0808800F07DEC2C
:1009120005F00001A06FA0510001A213809800D041
:1009220000D000D000D00001A2BF9AEF04F09DEFEA
:1009320004F0FFFF6CEF04F0FFFF809A0001A25168
:100942007F0B1200FFFFFFFF000E926E9C0E000154
:10095200A26FF10EFFFFE82EFDD7A22FFBD700F00A
:100962008198809A030E2DEC04F077EC05F0280EA6
:10097200FFFFE82EFDD7030E2DEC04F077EC05F017
:10098200280EFFFFE82EFDD7030E2DEC04F077ECC6
:1009920005F0280EFFFFE82EFDD7020E2DEC04F025
:1009A20077EC05F0280EFFFFE82EFDD70F0E926EB2
:1009B2001200FFFFFFFF0001A46F69EC04F0000EBC
:1009C200926E00D000D000D000D08188809A0001C1
:1009D200A4390F0B2DEC04F077EC05F000D000D019
:1009E20000D000D00001A4512DEC04F077EC05F00A
:1009F20000D000D000D000D00F0E926E00D000D0F8
:100A020000D000D069EC04F01200FFFF0804040AD1
:100A1200111F110002040E111F100E0002041F10FC
:100A22001E101F0008040E111F100E0008041F10D4
:100A32001E101F00040A0E111F100E0008040E01E2
:100A42000F110F00040A0E010F110F00FFFF935048
:100A5200EF0B936EA4EC04F0280E64EC03F00F0E7F
:100A620064EC03F0010E64EC03F0060E64EC03F098
:100A7200800E64EC03F009EC03F01200FFFF0E0E8F
:100A8200F66E0A0EF76E000EF86E00EE60F010EED3
:100A920040F00900F5CFEEFFE550E150FAE1000128
:100AA20053EF05F0FFFF82EC05F066EC05F027EC52
:100AB20005F0010E0001AA6F060EAB6FB2EC03F057
:100AC200FFFF61EF05F001EF00F0FFFF948E948CC1
:100AD200190EAF6EAC94AB8EAC98AB881200FFFFD0
:100AE200FFFF020E64EC03F01200FFFFFFFF80889D
:100AF20000F080981200FFFFFFFF80500F0B1200E2
:0A0B0200FFFFFFFF1200FFFFFFFFDF
:020000040020DA
:08000000FFFFFFFFFFFFFFFF00
:020000040030CA
:04000000FF220D0EC0
:0800060080FF0FC00FE00F4066
:00000001FF
