:0600000000F025EF0CF0FA
:1006000000456E7472657A20766F747265206E6F25
:100610002064276574756469616E7400456E747238
:10062000657A20766F747265204E4950006163636D
:100630006573206C6F63616C2032383300616363D3
:1006400065732072656675736500426F6E6A6F75BB
:100650007220003C456E7465723E0000FFFFC1ECE5
:100660000CF00001D8A037EF03F03AEF03F0FFFFE2
:1006700061EF05F0FFFFD3EC0CF00001B86F2F0E17
:100680000001B86546EF03F049EF03F0FFFFE8EF24
:1006900003F0FFFF3A0E0001B86151EF03F054EF91
:1006A00003F0FFFFE8EF03F0FFFFB2C0D9FFB3C0D4
:1006B000DAFFDE04DE10D8A460EF03F063EF03F08E
:1006C000FFFFB5EF03F0FFFF0001B851A1EC0AF006
:1006D000B4C0D9FFB5C0DAFF010EDBBE75EF03F081
:1006E00072EF03F0FFFF88EF03F0FFFFB80E000189
:1006F000A76F000EA86F60EC07F0B4C0D9FFB5C0BB
:10070000DAFF0001A7C0DEFFA8C0DDFF61EF05F042
:10071000FFFFB4C0D9FFB5C0DAFFDECFA0F0DDCF58
:10072000A1F0000E0001A36F0A0EA26FABEC0CF05B
:10073000A0C0B6F0A1C0B7F0B80E0001A76F000EC0
:10074000A86F60EC07F00001A7510001B627000177
:10075000A8510001B723B4C0D9FFB5C0DAFFB6C0B5
:10076000DEFFB7C0DDFF61EF05F0FFFFB2C0D9FFCC
:10077000B3C0DAFF020EDE18DE10D8A4C2EF03F019
:10078000C5EF03F0FFFF61EF05F0FFFF0001C0BF01
:10079000D6EF03F0C05107E1040EBF5DD8B0D3EF30
:1007A00003F0D6EF03F0FFFF61EF05F0FFFF2A0E25
:1007B000A1EC0AF0C10E0001BF25D96E000EC021C8
:1007C000DA6EB8C0DFFF0001BF4BC02B61EF05F050
:1007D000FFFF0D0E0001B819D8A4F1EF03F0F4EFFC
:1007E00003F0FFFFE1EF04F0FFFFB2C0D9FFB3C099
:1007F000DAFFDE50DE10D8A400EF04F003EF04F0BF
:10080000FFFF0EEF04F0FFFFB2C0D9FFB3C0DAFF65
:10081000010EDE6E000EDD6E61EF05F0FFFFB2C06F
:10082000D9FFB3C0DAFFDE04DE10D8A41AEF04F05B
:100830001DEF04F0FFFF57EF04F0FFFFB4C0D9FF36
:10084000B5C0DAFF010EDBBE28EF04F02BEF04F099
:10085000FFFF4CEF04F0FFFFB4C0D9FFB5C0DAFFD3
:10086000010EDBBE41EF04F0010EDB5007E10C0E80
:10087000DE5CD8B03EEF04F041EF04F0FFFF4CEF38
:1008800004F0FFFFB2C0D9FFB3C0DAFF020EDE6E84
:10089000000EDD6E61EF05F0FFFFB2C0D9FFB3C0FF
:1008A000DAFF040EDE6E000EDD6E61EF05F0FFFF75
:1008B000B2C0D9FFB3C0DAFF020EDE18DE10D8A432
:1008C00064EF04F067EF04F0FFFFB8EF04F0FFFF00
:1008D000B4C0D9FFB5C0DAFFDECFACF0DDCFADF0EC
:1008E000C10E0001AE6F000EAF6FBFC0B0F0C0C050
:1008F000B1F0DEEC0AF00009D8B481EF04F084EF27
:1009000004F0FFFF8FEF04F0FFFFB2C0D9FFB3C0C8
:10091000DAFF030EDE6E000EDD6E61EF05F0FFFF05
:10092000B2C0D9FFB3C0DAFF040EDE6E000EDD6E7A
:10093000B4C0D9FFB5C0DAFFFF0EDE6EFF0EDD6E6C
:10094000C10E0001A06F000EA16F000E0001A36F89
:10095000000EA26F000E0001A56F050EA46F7DECC6
:1009600006F0000E0001C06F000EBF6F61EF05F0D2
:10097000FFFFB2C0D9FFB3C0DAFF000EDE6E000E7B
:10098000DD6EB4C0D9FFB5C0DAFFFF0EDE6EFF0E1C
:10099000DD6EC10E0001A06F000EA16F000E000100
:1009A000A36F000EA26F000E0001A56F050EA46FCD
:1009B0007DEC06F0000E0001C06F000EBF6F61EF0E
:1009C00005F0FFFF1B0E0001B819D8A4EAEF04F0F0
:1009D000EDEF04F0FFFF61EF05F0FFFFB2C0D9FFBC
:1009E000B3C0DAFF020EDE18DE10D8A4FAEF04F06E
:1009F000FDEF04F0FFFF26EF05F0FFFFB2C0D9FFC7
:100A0000B3C0DAFF010EDE6E000EDD6EB4C0D9FF9A
:100A1000B5C0DAFFFF0EDE6EFF0EDD6EC10E000107
:100A2000A06F000EA16F000E0001A36F000EA26F59
:100A3000000E0001A56F050EA46F7DEC06F0000E00
:100A40000001C06F000EBF6F61EF05F0FFFFB2C085
:100A5000D9FFB3C0DAFFDE04DE10D8A432EF05F010
:100A600035EF05F0FFFF5EEF05F0FFFFB2C0D9FFE5
:100A7000B3C0DAFF000EDE6E000EDD6EB4C0D9FF2B
:100A8000B5C0DAFFFF0EDE6EFF0EDD6EC10E000197
:100A9000A06F000EA16F000E0001A36F000EA26FE9
:100AA000000E0001A56F050EA46F7DEC06F0000E90
:100AB0000001C06F000EBF6F61EF05F0FFFF61EF37
:100AC00005F0FFFF1200FFFFFFFF55EF06F0FFFFED
:100AD000FAEC0CF003EC0DF02D0E0001AA6F060EDF
:100AE000AB6FAA51AB11D8A4000EAC6FB4EC08F0F8
:100AF000020E0001A66F010E15EC0AF0530E000164
:100B0000AA6F060EAB6FAA51AB11D8A4000EAC6F42
:100B1000B4EC08F07AEF06F0FFFFFAEC0CF003EC0F
:100B20000DF0010E0001AA6F060EAB6FAA51AB11BA
:100B3000D8A4000EAC6FB4EC08F0030E0001A66F51
:100B4000010E15EC0AF0530E0001AA6F060EAB6FF2
:100B5000AA51AB11D8A4000EAC6FB4EC08F0040E8F
:100B60000001A66F010E15EC0AF07AEF06F0FFFF08
:100B7000FAEC0CF003EC0DF01C0E0001AA6F060E4F
:100B8000AB6FAA51AB11D8A4000EAC6FB4EC08F057
:100B9000020E0001A66F010E15EC0AF0530E0001C3
:100BA000AA6F060EAB6FAA51AB11D8A4000EAC6FA2
:100BB000B4EC08F0030E0001A66F010E15EC0AF06C
:100BC0007AEF06F0FFFFFAEC0CF003EC0DF04A0EA2
:100BD0000001AA6F060EAB6FAA51AB11D8A4000E8C
:100BE000AC6FB4EC08F0B5C0A0F0B6C0A1F0000E38
:100BF0000001A36F190EA26FABEC0CF0C60E000142
:100C0000A0250001B76F000E0001A1210001B86FFF
:100C1000B7C0AAF0B8C0ABF00001AA51AB11D8A47C
:100C2000200EAC6FB4EC08F0020E0001A66F010EAE
:100C300015EC0AF0530E0001AA6F060EAB6FAA5115
:100C4000AB11D8A4000EAC6FB4EC08F0030E000199
:100C5000A66F010E15EC0AF082807AEF06F0FFFF16
:100C6000FAEC0CF003EC0DF03D0E0001AA6F060E3D
:100C7000AB6FAA51AB11D8A4000EAC6FB4EC08F066
:100C8000020E0001A66F010E15EC0AF0530E0001D2
:100C9000AA6F060EAB6FAA51AB11D8A4000EAC6FB1
:100CA000B4EC08F0838E7AEF06F0FFFFB3C0B7F024
:100CB000B4C0B8F00001B851000AD8B462EF06F031
:100CC0007AEF06F0FFFFB751000AD8B467EF05F0DE
:100CD000010AD8B48CEF05F0030AD8B4B7EF05F0D9
:100CE000010AD8B4E2EF05F0070AD8B42FEF06F0F6
:100CF0007AEF06F0FFFF1200FFFFFFFFA0C0AAF08F
:100D0000A1C0ABF00001A451A511D8A48AEF06F050
:100D10008DEF06F0FFFF94EF06F0FFFFA0C0A0F0FC
:100D2000A1C0A1F05DEF07F0FFFFAAC0D9FFABC0E3
:100D3000DAFFA2C0DFFFA451AA25A66FA551AB21FF
:100D4000A76FFF0EA625D96EFF0EA721DA6EA2C0EF
:100D5000DFFFA55107E1030EA45DD8B0B2EF06F0A6
:100D6000B5EF06F0FFFFBCEF06F0FFFFA0C0A0F05C
:100D7000A1C0A1F05DEF07F0FFFF20EE01F0AA5146
:100D8000D926AB51DA22A2C0DFFF20EE02F0AA5131
:100D9000D926AB51DA22A2C0DFFFA451AA25A66F43
:100DA000A551AB21A76FFE0EA625D96EFF0EA72178
:100DB000DA6EA2C0DFFFA451AA25A66FA551AB2110
:100DC000A76FFD0EA625D96EFF0EA721DA6EA2C071
:100DD000DFFFA55107E1070EA45DD8B0F2EF06F0E2
:100DE000F5EF06F0FFFFFCEF06F0FFFFA0C0A0F05C
:100DF000A1C0A1F05DEF07F0FFFF20EE03F0AA51C4
:100E0000D926AB51DA22A2C0DFFFA451AA25A66FD2
:100E1000A551AB21A76FFC0EA625D96EFF0EA72109
:100E2000DA6EA2C0DFFFA55107E1090EA45DD8B0BC
:100E30001CEF07F01FEF07F0FFFF26EF07F0FFFFA3
:100E4000A0C0A0F0A1C0A1F05DEF07F0FFFFAAC015
:100E5000A6F0ABC0A7F0A61FA71FA64BA72B030E9B
:100E6000A615A86FA96BA851AA27A951AB23A85111
:100E7000A45FA951A55BFC0EA417FF0EA5174DEFAB
:100E800007F0FFFFAAC0D9FFABC0DAFFA2C0DFFFA7
:100E9000A407D8A0A507AA4BAB2BFFFFA451A5110F
:100EA000D8A455EF07F058EF07F0FFFF41EF07F028
:100EB000FFFFA0C0A0F0A1C0A1F0FFFF1200FFFF44
:100EC000FFFF000E0001B06F000EAF6F000EAE6F9F
:100ED000000EAD6F6FEF07F0FFFFA74BA82BFFFFD2
:100EE000A7C0D9FFA8C0DAFF200EDE18D8B47BEF68
:100EF00007F07EEF07F0FFFF6CEF07F0FFFFF70E44
:100F0000A96FFF0EAA6FA7C0D9FFA8C0DAFFDF50F4
:100F1000AB6FAC6BA951AB27AA51AC23AC510AE122
:100F2000050EAB5DD8A097EF07F09AEF07F0FFFF33
:100F30006CEF07F0FFFFA7EF07F0FFFF000EAE6FAB
:100F4000010EAD6FFFFFA74BA82BE0EF07F0FFFFEF
:100F5000A7C0D9FFA8C0DAFFDF50A96FAA6BAA51BA
:100F6000000AD8B4B6EF07F0E0EF07F0FFFFA95191
:100F70002B0AD8B4A2EF07F0060AD8B49DEF07F009
:100F8000E0EF07F0FFFFAFC0A0F0B0C0A1F0000E8F
:100F9000A36F0A0EA26FABEC0CF0A7C0D9FFA8C0DC
:100FA000DAFFDF500001A96FA951A05F000EA15B1D
:100FB000300EA025AF6F000EA121B06FA74BA82B5C
:100FC000FFFFD00EA96FFF0EAA6FA7C0D9FFA8C060
:100FD000DAFFDF50AB6FAC6BA951AB27AA51AC2342
:100FE000AC510AE10A0EAB5DD8A0F9EF07F0FCEFB7
:100FF00007F0FFFFC2EF07F0FFFFAD51AE11D8A41D
:1010000004EF08F007EF08F0FFFF16EF08F0FFFF0E
:10101000AFC0A9F0B0C0AAF0A91FAA1FA94BAA2B64
:10102000A9C0A7F0AAC0A8F01BEF08F0FFFFAFC04F
:10103000A7F0B0C0A8F0FFFF1200FFFF4D72205ACA
:1010400065726F000000000000000000000000005A
:1010500000000000004D7220556E000000000000EE
:1010600000000000000000000031000000004D6D95
:101070006520446575780000000000000000000055
:10108000000032320000004D722054726F6973000C
:1010900000000000000000000000003333330000B7
:1010A0004D722051756174726500000000000000EF
:1010B0000000000034343434004D6D65204E6F352F
:1010C00020000000000000000000000000350000CB
:1010D00000004D72204E6F3600000000000000003E
:1010E00000000000000036000000004D6D65204E3D
:1010F0006F37000000000000000000000000003713
:10110000000000004D72204E6F380000000000000B
:10111000000000000000000038000000004D6D6578
:10112000204E6F39000000000000000000000000A9
:101130000039000000004D72204E6F313000000079
:101140000000000000000000000031300000004DF1
:101150006D65204E6F31310000000000000000007E
:101160000000003131000000FFFF000E0001B26FEF
:10117000E4EF08F0FFFF0001B2510001AD6FAE6B6C
:10118000AD510001AA250001AF6FAE510001AB21A6
:101190000001B06F000E0001AC210001B16FAFC0C3
:1011A000F6FFB0C0F7FFB1C0F8FFF8BA04D00800EE
:1011B000FFFFF55005D0F6CFE1FFF7CFE2FFE75094
:1011C000A1EC0AF00001B22BFFFF0001B2510001B7
:1011D000AD6FAE6BAD510001AA250001AF6FAE51EE
:1011E0000001AB210001B06F000E0001AC21000135
:1011F000B16FAFC0F6FFB0C0F7FFB1C0F8FFF8BAEB
:1012000004D00800FFFFF55005D0F6CFE1FFF7CF7F
:10121000E2FFE7500009D8A410EF09F013EF09F03E
:10122000FFFFBAEF08F0FFFF1200FFFFFFFF400EC5
:10123000C7EC09F0000E0001A86F070E0001A865B9
:1012400024EF09F027EF09F0FFFF2AEF09F0FFFF75
:101250006EEF09F0FFFF000E0001A96F070E0001FD
:10126000A96535EF09F038EF09F0FFFF3BEF09F012
:10127000FFFF61EF09F0FFFF0001A851080D600EAC
:101280000001A66F000EA76FF350A627F450A72306
:101290000001A9510001A625D96E0001000E000130
:1012A000A721DA6EDF50F9EC0BF00001A92B070E35
:1012B0000001A9655EEF09F061EF09F0FFFF3BEF68
:1012C00009F0FFFF0001A82B070E0001A8656BEFD6
:1012D00009F06EEF09F0FFFF2AEF09F0FFFF03ECC2
:1012E0000DF01200FFFFFFFF000E0001BE6F000EA9
:1012F000BD6F000E0001BA6F050EB96F0001BB692A
:10130000BC69EFEC0CF0E4EC0CF092EC0CF003ECAC
:101310000DF0FFFFC1EC0CF00001D8A092EF09F036
:1013200095EF09F0FFFFA2EF09F0FFFFBD0E0001EE
:10133000B26F000EB36FBB0E0001B46F000EB56F3D
:101340002EEC03F0FFFF0001BD510001B9190CE1C3
:101350000001BE510001BA19D8B4B1EF09F0B4EFE1
:1013600009F0FFFF89EF09F0FFFFBDC0B3F0BEC079
:10137000B4F0BBC0B5F0BCC0B6F064EC05F0BDC0C5
:10138000B9F0BEC0BAF089EF09F001EF00F0FFFF3D
:101390000001A56F56EC0BF0000E926E00D000D04D
:1013A00000D000D08198809A0001A5390F0B1AEC6B
:1013B0000BF009EC0DF000D000D000D000D00001FF
:1013C000A5511AEC0BF009EC0DF0280EFFFFE82EEA
:1013D000FDD70001A505D8B4F0EF09F0F3EF09F04F
:1013E000FFFFFFEF09F0FFFF020E0001A519D8A4CF
:1013F000FCEF09F0FFEF09F0FFFF0AEF0AF0FFFF33
:10140000080E0001A46FCB0EFFFFE82EFDD7A42F1E
:10141000FBD700F0FFFF0F0E926E00D000D000D07F
:1014200000D056EC0BF01200FFFFFFFF0001A96F88
:101430003DEF0AF0FFFF0001A9058009C7EC09F0A4
:101440005EEF0AF0FFFF0001A9513F0F8009C7ECD2
:1014500009F05EEF0AF0FFFF0001A951130F8009A8
:10146000C7EC09F05EEF0AF0FFFF0001A951530F2E
:101470008009C7EC09F05EEF0AF0FFFF0001A651FA
:101480000001A76FA86BA851000AD8B44AEF0AF070
:101490005EEF0AF0FFFFA751010AD8B41AEF0AF075
:1014A000030AD8B422EF0AF0010AD8B42BEF0AF0ED
:1014B000070AD8B434EF0AF05EEF0AF0FFFF12001B
:1014C000FFFFFFFF6AEF0AF0FFFF0001A64BA72B0B
:1014D000A84BA92BFFFFA8C0D9FFA9C0DAFFA6C05F
:1014E000E1FFA7C0E2FFDE50E618D8A47AEF0AF0C9
:1014F0007DEF0AF0FFFF8BEF0AF0FFFFA6C0D9FFD8
:10150000A7C0DAFFDF50D8A488EF0AF08BEF0AF00B
:10151000FFFF64EF0AF0FFFFA6C0D9FFA7C0DAFF04
:10152000DF500001AA6FA8C0D9FFA9C0DAFFDF50C1
:10153000AB6FAB51AA5DA66FA76BD8A0A70712002F
:10154000FFFFFFFF0001A86F0001A851F9EC0BF0AD
:101550000001A96FBEEF0AF0FFFFC00EC7EC09F053
:10156000DBEF0AF0FFFF940EC7EC09F0DBEF0AF0A7
:10157000FFFFD40EC7EC09F0DBEF0AF0FFFF00011C
:10158000A9510001A66FA76BA751000AD8B4CBEFF1
:101590000AF0DBEF0AF0FFFFA651140AD8B4ACEF53
:1015A0000AF0540AD8B4B8EF0AF0140AD8B4B2EF6B
:1015B0000AF0DBEF0AF0FFFF1200FFFFFFFF000160
:1015C000B0510001AE25D96E0001B1510001AF212B
:1015D000DA6E000EDF6EAEC0A6F0AFC0A7F0ACC0F2
:1015E000A0F0ADC0A1F0000E0001A36F190EA26F14
:1015F000ABEC0CF0DA0E0001A0250001A86F000E84
:101600000001A1210001A96F61EC0AF00001A651BF
:10161000A711D8A40EEF0BF011EF0BF0FFFF15EFA1
:101620000BF0FFFF010E17EF0BF0FFFF000EFFFFA7
:101630001200FFFFFFFF0001A16FA1C0A0F0010E8B
:101640000001A0178050A019FE0BA019806EA1C048
:10165000A0F0D890A033010EA017A0478050A01989
:10166000FD0BA019806EA1C0A0F0D890A033D89037
:10167000A033010EA017A047A0478050A019FB0B74
:10168000A019806EA1C0A0F0D890A033D890A0334C
:10169000D890A033010EA017A047A047A0478050C4
:1016A000A019F70BA019806E1200FFFFFFFF8198B1
:1016B000808AFFFF808800F00FEC0DF00001A06F22
:1016C000A16BA03BA13BF00EA117A0510F0BA113E2
:1016D000F00EA017A0C0A2F0A1C0A3F0809800D087
:1016E00000D000D000D0808800F00FEC0DF0000199
:1016F000A06FA0510001A213809800D000D000D0AC
:1017000000D00001A2BF87EF0BF08AEF0BF0FFFFC4
:1017100059EF0BF0FFFF809A0001A2517F0B1200DE
:10172000FFFFFFFF000E926E9C0E0001A26FF10EF4
:10173000FFFFE82EFDD7A22FFBD700F08198809AFB
:10174000030E1AEC0BF009EC0DF0280EFFFFE82E4B
:10175000FDD7030E1AEC0BF009EC0DF0280EFFFF7D
:10176000E82EFDD7030E1AEC0BF009EC0DF0280E55
:10177000FFFFE82EFDD7020E1AEC0BF009EC0DF07E
:10178000280EFFFFE82EFDD70F0E926E1200FFFF0E
:10179000FFFF010E0001A66F200EA019A111D8B401
:1017A000D4EF0BF0D7EF0BF0FFFFF3EF0BF0FFFFE1
:1017B000F70EA26FFF0EA36FA0C0A4F0A1C0A5F00A
:1017C000A251A427A351A523A5510AE1050EA45DAA
:1017D000D8A0EDEF0BF0F0EF0BF0FFFFF3EF0BF005
:1017E000FFFF000EA66FFFFFA6C0A0F0A16B1200C6
:1017F000FFFFFFFF0001A46F56EC0BF0000E926E8E
:1018000000D000D000D000D08188809A0001A43997
:101810000F0B1AEC0BF009EC0DF000D000D000D04B
:1018200000D00001A4511AEC0BF009EC0DF000D02F
:1018300000D000D000D00F0E926E00D000D000D0AB
:1018400000D056EC0BF01200FFFF3C0EF66E100EAF
:10185000F76E000EF86E00EEC6F011EE2CF00900E7
:10186000F5CFEEFFE550E150FAE1E250F8E1E40E89
:10187000F66E180EF76E000EF86E00EE60F010EEC9
:1018800040F00900F5CFEEFFE550E150FAE100EE3F
:10189000BFF0070EEE6AE806FDE1000173EF09F004
:1018A000FFFFD00E0001A26FFF0EA36FA0C0A4F037
:1018B000A1C0A5F0A251A427A351A523A5510BE1D6
:1018C0000A0EA45DD8A067EF0CF06BEF0CF0FFFFE1
:1018D000010E6DEF0CF0FFFF000EFFFFA06FA16B7C
:1018E0001200FFFF0804040A111F110002040E1168
:1018F0001F100E0002041F101E101F0008040E11FE
:101900001F100E0008041F101E101F00040A0E11E5
:101910001F100E0008040E010F110F00040A0E0123
:101920000F110F00FFFF9350EF0B936E91EC0BF034
:10193000280EC7EC09F00F0EC7EC09F0010EC7EC3A
:1019400009F0060EC7EC09F0800EC7EC09F016ECA2
:1019500009F01200FFFFFFFF0001A051A203F3CF27
:10196000A4F0F4CFA5F0A051A303F350A527A151F3
:10197000A203F350A527A4C0A0F0A5C0A1F01200B7
:10198000FFFFFFFF9EBAC7EF0CF0CAEF0CF0FFFF9E
:10199000CEEF0CF0FFFFD890D0EF0CF0FFFFD88017
:1019A000FFFF1200FFFFFFFFFFFF9EAADAEF0CF020
:1019B000DDEF0CF0FFFFD4EF0CF0FFFFAECFA0F097
:1019C0000001A0511200FFFFFFFF948E948C190EAE
:1019D000AF6EAC94AB8EAC98AB881200FFFFFFFFEC
:1019E000070EC16E000E926E000E956E800E946E04
:1019F0001200FFFFFFFF010EC7EC09F0800EC7ECDD
:101A000009F01200FFFFFFFF020EC7EC09F0120001
:101A1000FFFFFFFF808800F080981200FFFFFFFFAC
:0A1A200080500F0B1200FFFFFFFFC4
:020000040020DA
:08000000FFFFFFFFFFFFFFFF00
:020000040030CA
:04000000FF220D0EC0
:0800060080FF0FC00FE00F4066
:00000001FF
